:020000040000FA
:100000000C9463000C948B000C948B000C948B006C
:100010000C948B000C948B000C948B000C948B0034
:100020000C948B000C948B000C948B000C948B0024
:100030000C948B000C948B000C948B000C948B0014
:100040000C9405040C948B000C9475040C944F04D0
:100050000C948B000C948B000C948B000C948B00F4
:100060000C948B000C948B000000000024002700EF
:100070002A000000000023002600290000000008DC
:10008000000201000003040700000000000000005F
:10009000010204081020408001020408102001021F
:1000A0000408102000000000250028002B00040494
:1000B0000404040404040202020202020303030310
:1000C0000303A704100811241FBECFEFD8E0DEBF42
:1000D000CDBF12E0A0E0B1E0ECECF4E102C005908D
:1000E0000D92A233B107D9F723E0A2E3B2E001C039
:1000F0001D92A430B207E1F710E0C2E6D0E004C0E0
:100100002197FE010E942709C136D107C9F70E9435
:1001100048050C94590A0C9400008F929F92AF925C
:10012000BF92CF92DF92EF92FF92CF932091EC0299
:100130003091ED0282179307E8F54B01AA24BB2406
:10014000C82DC52ED62EE72EFF24BC2DA42F20911E
:10015000F202222361F0829E40011124C92D2C9DC0
:1001600060011124BD2D249FF0011124AF2FE091D7
:10017000F802E090F302F090F4023091F502E313FC
:1001800023C09C01220F331F820F931F8E0D9F1DD2
:10019000E091F502E80FF92FF11DC083E091F6021E
:1001A000E80FF92FF11DB0832091F702820F911D06
:1001B000FC01A083CF91FF90EF90DF90CF90BF9094
:1001C000AF909F908F900895880F991F880F991F67
:1001D0008E0D9F1D472F552766277727222349F02D
:1001E00030E0249F7001259FF00C349FF00C112407
:1001F0004F2DE80FF92FF11D4083CACF833081F0D6
:1002000028F4813099F08230A9F008958730A9F060
:100210008830C9F08430B1F4809180008F7D03C0B4
:10022000809180008F7780938000089584B58F77C8
:1002300084BD089584B58F7DFBCF8091B0008F770A
:100240008093B00008958091B0008F7DF9CFCF9357
:10025000DF93282F30E0F901E458FF4F8491F90132
:10026000E057FF4FD491F901E255FF4FC491CC23E1
:1002700091F081110E94FE00EC2FF0E0EE0FFF1FC5
:10028000EC55FF4FA591B4918FB7F894EC91D095B0
:10029000DE23DC938FBFDF91CF910895CF93DF935F
:1002A000282F30E0F901E458FF4F8491F901E0571D
:1002B000FF4FD491F901E255FF4FC491CC23A1F037
:1002C00081110E94FE00EC2FF0E0EE0FFF1FEE58B0
:1002D000FF4FA591B491EC91ED2381E090E009F4FA
:1002E00080E0DF91CF91089580E090E0FACFCF9346
:1002F000DF9390E0FC01E057FF4F249182559F4F20
:10030000FC0184918823D1F090E0880F991FFC01B3
:10031000E859FF4FA591B491FC01EC55FF4FC591F1
:10032000D49161110EC09FB7F8948C91E22FE095A3
:100330008E238C932881E223E8839FBFDF91CF91A6
:1003400008958FB7F894EC91E22BEC938FBFF6CF22
:100350003FB7F8948091490290914A02A0914B02D4
:10036000B0914C0226B5A89B05C02F3F19F001960D
:10037000A11DB11D3FBFBA2FA92F982F8827BC01FF
:10038000CD01620F711D811D911D42E0660F771F27
:10039000881F991F4A95D1F708950F931F93CF9304
:1003A000DF93CDB7DEB729970FB6F894DEBF0FBE47
:1003B000CDBF8091F3029091F402892B09F47CC0A7
:1003C0000E94A8010091F9021091FA022091FB020B
:1003D0003091FC02601771078207930740F4609325
:1003E000F9027093FA028093FB029093FC02009151
:1003F000F9021091FA022091FB023091FC02601B7D
:10040000710B820B930B6C32714081059105C0F228
:10041000F8948091EE029091EF029A838983E091A3
:10042000F302F091F402DF011196808189879091A7
:10043000EA02E091FD02F091FE028091FF02992311
:1004400009F445C09081982B9887908180958923E5
:100450008F838F818C8388E08B8358856F8149855A
:100460003B812C8189819A81508347FD252F3A95C4
:100470002083262F39F0441F00C000006083000055
:1004800000C0F2CF38E04D9160830000019761F722
:10049000F093FE02E093FD0249873B832C839A830D
:1004A000898378940E94A8016093F9027093FA02FC
:1004B0008093FB029093FC0229960FB6F894DEBF5E
:1004C0000FBECDBFDF91CF911F910F910895908105
:1004D000982B98879081809589238F838F818E8335
:1004E00088E08D8358856F8149853D812E81898182
:1004F0009A81508347FD252F00C000C0208300C093
:1005000000C000C000C000C060830000262F3A95E4
:1005100041F0441F000000C000C000C000C000C087
:10052000E8CF38E04D9100C0608300C0019709F723
:10053000F093FE02E093FD0249873D832E83AFCF07
:100540008F929F92AF92BF92CF92DF92EF92FF92E3
:100550006B017C010E94A8014B015C01C114D10414
:10056000E104F104B9F00E94A801681979098A0927
:100570009B09683E73408105910580F321E0C21A12
:10058000D108E108F10888EE880E83E0981EA11CCE
:10059000B11CE4CFFF90EF90DF90CF90BF90AF9071
:1005A0009F908F900895AF92BF92CF92DF92EF927B
:1005B000FF920F931F93CF93DF936C017B018B010D
:1005C000040F151FEB015E01AE18BF08C017D1075D
:1005D00059F06991D601ED91FC910190F081E02DE7
:1005E000C6010995892B79F7C501DF91CF911F913C
:1005F0000F91FF90EF90DF90CF90BF90AF90089554
:10060000FC01538D448D252F30E0842F90E0821B18
:10061000930B541710F0CF96089501970895FC019D
:10062000918D828D981761F0A28DAE0FBF2FB11DF5
:100630005D968C91928D9F5F9F73928F90E008954D
:100640008FEF9FEF0895FC01918D828D981731F007
:10065000828DE80FF11D858D90E008958FEF9FEF5B
:100660000895FC01918D228D892F90E0805C9F4F31
:10067000821B91098F73992708958DE492E00E945F
:10068000310321E0892B09F420E0822F089580E0D6
:1006900090E0892B29F00E943D0381110C94000009
:1006A0000895FC01A48DA80FB92FB11DA35ABF4F07
:1006B0002C91848D90E001968F739927848FA68961
:1006C000B7892C93A089B1898C91837080648C93B5
:1006D000938D848D981306C00288F389E02D808164
:1006E0008F7D80830895EF92FF920F931F93CF9396
:1006F000DF93EC0181E0888F9B8D8C8D98131AC05D
:10070000E889F989808185FF15C09FB7F894EE8943
:10071000FF896083E889F9898081837080648083A0
:100720009FBF81E090E0DF91CF911F910F91FF90EB
:10073000EF900895F62E0B8D10E00F5F1F4F0F7393
:100740001127E02E8C8D8E110CC00FB607FCFACF4E
:10075000E889F989808185FFF5CFCE010E94510398
:10076000F1CFEB8DEC0FFD2FF11DE35AFF4FF0821F
:100770009FB7F8940B8FEA89FB8980818062CFCF85
:10078000CF93DF93EC01888D8823B9F0AA89BB89C8
:10079000E889F9898C9185FD03C0808186FD0DC0B3
:1007A0000FB607FCF7CF8C9185FFF2CF808185FFD4
:1007B000EDCFCE010E945103E9CFDF91CF91089593
:1007C000EAEEF2E04481558170E060E08185928537
:1007D0000C94520AFC0101900020E9F73197AF0117
:1007E000481B590BBC018DE492E00C94D302CF93CB
:1007F000DF930E94EA03EC018DE191E00E94EA039D
:100800008C0F9D1FDF91CF9108951F920F920FB60D
:100810000F9211242F933F938F939F93AF93BF9386
:100820008091450290914602A0914702B091480202
:100830003091440223E0230F2D3758F50196A11D76
:10084000B11D209344028093450290934602A093E9
:100850004702B09348028091490290914A02A091C8
:100860004B02B0914C020196A11DB11D809349022B
:1008700090934A02A0934B02B0934C02BF91AF9168
:100880009F918F913F912F910F900FBE0F901F90CE
:10089000189526E8230F0296A11DB11DD2CF1F92F5
:1008A0000F920FB60F9211242F933F934F935F93A4
:1008B0006F937F938F939F93AF93BF93EF93FF9328
:1008C0008DE492E00E945103FF91EF91BF91AF91AF
:1008D0009F918F917F916F915F914F913F912F9158
:1008E0000F900FBE0F901F9018951F920F920FB68A
:1008F0000F9211242F938F939F93EF93FF93E09187
:100900005D02F0915E028081E0916302F0916402E9
:1009100082FD1BC09081809166028F5F8F73209152
:100920006702821741F0E0916602F0E0E35BFD4F61
:10093000958F80936602FF91EF919F918F912F91F8
:100940000F900FBE0F901F9018958081F4CF1092DA
:10095000500210924F0288EE93E0A0E0B0E0809346
:10096000510290935202A0935302B09354028FE02D
:1009700091E090934E0280934D0285EC90E090932D
:100980005A028093590284EC90E090935C02809329
:100990005B0280EC90E090935E0280935D0281ECBC
:1009A00090E09093600280935F0282EC90E09093DD
:1009B00062028093610286EC90E0909364028093DF
:1009C00063021092660210926702109268021092FF
:1009D00069021092EB021092F2021092F902109248
:1009E000FA021092FB021092FC0281E08093F8025E
:1009F0008093F5021092F60292E09093F7028093B2
:100A0000EA0280E690E09093EF028093EE020E946B
:100A10002D099093F4028093F302009781F120E670
:100A2000FC0111922A95E9F780E290E09093ED02A3
:100A30008093EC028BE090E09093F1028093F002BF
:100A40008091EB02882339F061E08BE00E9477010E
:100A50008BE00E942701E9EBF0E0E491F0E0EE0F7B
:100A6000FF1FEC55FF4F859194919093FE02809368
:100A7000FD02EBE9F0E0E491E093FF0208951092AB
:100A8000EF021092EE021092ED021092EC02D2CF21
:100A9000789484B5826084BD84B5816084BD85B559
:100AA000826085BD85B5816085BD80916E00816065
:100AB00080936E001092810080918100826080930B
:100AC000810080918100816080938100809180000D
:100AD0008160809380008091B10084608093B10038
:100AE0008091B00081608093B00080917A00846032
:100AF00080937A0080917A00826080937A0080915E
:100B00007A00816080937A0080917A008068809377
:100B10007A001092C100E0915D02F0915E0282E0E5
:100B20008083E0915902F0915A021082E0915B02B9
:100B3000F0915C028FEC808310926502E09161027B
:100B4000F091620286E08083E0915F02F0916002A2
:100B5000808180618083E0915F02F09160028081FA
:100B600088608083E0915F02F091600280818068FC
:100B70008083E0915F02F091600280818F7D8083AD
:100B80008091F0029091F10297FD07C061E00E9410
:100B900077018091F0020E94270181E08093EB02AF
:100BA000C12CD12C7601CA94DCE88D2EDFE09D2E7D
:100BB000A12CB12C3324339480910001882309F4B3
:100BC0002AC11092000180E291E00E94F703809117
:100BD0003302811151C082E00E944E010197B9F7A2
:100BE0003092330282E00E944E01019781F70E9409
:100BF0006C08A70196010E94C408709335026093A7
:100C000034020E946C08A70196010E94C4087093E8
:100C10003702609336020E946C08A70196010E9479
:100C2000C4087093390260933802D0E0C0E02B0111
:100C30003C01552466247724809134024091360289
:100C400050E070E060E0762F652F542F4427682B2A
:100C50004429552966297729CE010E948D002196C5
:100C6000C032D10549F70E94CD0160E273E080E017
:100C700090E00E94A002B6CF03E010E00E94E003E3
:100C80000E94CD0160E971E080E090E00E94A00246
:100C9000D0E0C0E0809134024091360250E070E034
:100CA00060E0762F652F542F4427682B80913802FF
:100CB000482BCE010E948D002196C032D10551F7FC
:100CC0000E94CD0160E971E080E090E00E94A00206
:100CD0000150110999F60E94E0030E94CD0160E2E3
:100CE00073E080E090E00E94A00289E991E00E9418
:100CF000F70380913202811151C084E00E944E01BD
:100D00000197B9F73092320284E00E944E010197B8
:100D100081F70E946C08A70196010E94C408709395
:100D20003D0260933C020E946C08A70196010E945C
:100D3000C40870933F0260933E020E946C08A701B2
:100D400096010E94C4087093410260934002D0E073
:100D5000C0E02B013C0155246624772480913C029D
:100D600040913E0250E070E060E0762F652F542FF6
:100D70004427682B4429552966297729CE010E94EA
:100D80008D002196C032D10549F70E94CD0160E265
:100D900073E080E090E00E94A002B6CF03E010E094
:100DA0000E94E0030E94CD0160E971E080E090E0E4
:100DB0000E94A002D0E0C0E080913C0240913E023F
:100DC00050E070E060E0762F652F542F4427682BA9
:100DD00080914002482BCE010E948D002196C032A6
:100DE000D10551F70E94CD0160E971E080E090E00B
:100DF0000E94A0020150110999F60E94E0030E948E
:100E0000CD0160E476E080E090E00E94A00288EBF3
:100E100091E00E94F7030E94E0030E94CD0160E28E
:100E200073E080E090E00E94A0028DEC91E00E94CF
:100E3000EA030E946C08A50194010E94C4086C5E3C
:100E40007F4F8F4F9F4F0E94A002D0E0C0E04FEF36
:100E50005FEF6FEF70E0CE010E948D002196C032EF
:100E6000D105A9F70E94CD0182E00E944E01892B95
:100E700029F484E00E944E01892BB1F382E00E94A4
:100E80004E01019709F044C00E94E0030E94CD0189
:100E900087ED91E00E94EA0300913A0210913B0233
:100EA0000E5F1F4F10933B0200933A02D0E0C0E068
:100EB0000C171D07A4F0809134024091360250E0D7
:100EC00070E060E0762F652F542F4427682B8091C7
:100ED0003802482BCE010E948D002196E9CF0E9456
:100EE000CD0160ED77E080E090E00E94A0020E94DA
:100EF000E0030E94CD0180E090E0892B09F45CCEF4
:100F00000E943D03882309F457CE0E94000054CE6E
:100F100084E00E944E01019771F70E94E0030E9455
:100F2000CD018CEE91E00E94EA03C0914202D09183
:100F300043022296D0934302C0934202C032D105AD
:100F40001CF510E000E0C017D107ACF080913C0226
:100F500040913E0250E070E060E0762F652F542F04
:100F60004427682B80914002482BC8010E948D00C5
:100F70000F5F1F4FE8CF0E94CD0160ED77E080E06A
:100F800090E00E94A002B7CF81E092E00E94EA03C5
:100F900082E00E944E01892B71F084E00E944E0194
:100FA000892B49F060E87CE080E090E00E94A0029C
:100FB00030920001A0CFD0E0C0E080913C0240918F
:100FC0003E0250E070E060E0762F652F542F4427FA
:100FD000682B80914002482BCE010E948D000E9418
:100FE000CD0169E170E080E090E00E94A0022196CE
:100FF000C032D10511F7D0E0C0E040E050E0BA01C6
:10100000CE010E948D000E94CD0169E170E080E078
:1010100090E00E94A0022196C032D10571F7B8CFAE
:101020008091F3029091F4020E94C9098091F0022C
:101030009091F10297FD03C060E00C947701089550
:101040008F929F92AF92BF92CF92DF92EF92FF92D8
:10105000CF93DF93EC01688179818A819B8161154F
:1010600071058105910521F464E279ED8BE597E046
:101070002DE133EF41E050E00E94C40849015A01DC
:101080009B01AC01A7EAB1E40E94E3086B017C017B
:10109000ACEEB4EFA50194010E94F108C60ED71E74
:1010A000E81EF91EF7FE06C081E0C81AD108E10863
:1010B00080E8F80AC882D982EA82FB82C701B601B9
:1010C0009F77DF91CF91FF90EF90DF90CF90BF900F
:1010D000AF909F908F9008958F929F92AF92BF9202
:1010E000CF92DF92EF92FF92609101017091020125
:1010F00080910301909104016115710581059105AD
:1011000021F464E279ED8BE597E02DE133EF41E0E6
:1011100050E00E94C40849015A019B01AC01A7EAB2
:10112000B1E40E94E3086B017C01ACEEB4EFA501D1
:1011300094010E94F108C60ED71EE81EF91EF7FEA4
:1011400006C081E0C81AD108E10880E8F80AC09218
:101150000101D0920201E0920301F0920401C70163
:10116000B6019F77FF90EF90DF90CF90BF90AF9048
:101170009F908F9008956093010170930201809376
:101180000301909304010895052E97FB1EF400942B
:101190000E94DB0857FD07D00E94F60807FC03D029
:1011A0004EF40C94DB0850954095309521953F4FB7
:1011B0004F4F5F4F089590958095709561957F4F43
:1011C0008F4F9F4F08950E941809A59F900DB49FBF
:1011D000900DA49F800D911D11240895B7FF0C94CC
:1011E000E3080E94E308821B930B0895A1E21A2EE4
:1011F000AA1BBB1BFD010DC0AA1FBB1FEE1FFF1FBB
:10120000A217B307E407F50720F0A21BB30BE40B0A
:10121000F50B661F771F881F991F1A9469F7609551
:101220007095809590959B01AC01BD01CF0108950B
:10123000A29FB001B39FC001A39F700D811D112417
:10124000911DB29F700D811D1124911D0895EE0F07
:10125000FF1F0590F491E02D09940F931F93CF93F6
:10126000DF938230910510F482E090E0E091020378
:10127000F091030330E020E0B0E0A0E0309799F473
:101280002115310509F44AC0281B390B24303105DA
:10129000D8F58A819B816115710589F1FB019383E2
:1012A0008283FE0111C04081518102811381481760
:1012B0005907E0F04817590799F4109761F0129612
:1012C0000C93129713961C933296CF01DF91CF9116
:1012D0001F910F9108950093020310930303F4CF1D
:1012E0002115310551F04217530738F0A901DB01F0
:1012F0009A01BD01DF01F801C1CFEF01F9CF909351
:10130000030380930203CDCFFE01E20FF31F81930D
:1013100091932250310939832883D7CF209100033C
:1013200030910103232B41F42091070130910801F2
:1013300030930103209300032091050130910601B1
:101340002115310541F42DB73EB740910901509167
:101350000A01241B350BE0910003F0910103E21711
:10136000F307A0F42E1B3F0B2817390778F0AC01C8
:101370004E5F5F4F2417350748F04E0F5F1F5093A5
:10138000010340930003819391939FCFF0E0E0E04D
:101390009CCFCF93DF930097E9F0FC013297138243
:1013A0001282A0910203B0910303ED0130E020E02E
:1013B0001097A1F420813181820F931F20910003A7
:1013C000309101032817390709F061C0F093010338
:1013D000E0930003DF91CF910895EA01CE17DF0774
:1013E000E8F54A815B819E0141155105B1F7E9019C
:1013F000FB83EA8349915991C40FD51FEC17FD0770
:1014000061F4808191810296840F951FE90199838F
:101410008883828193819B838A83F0E0E0E0129647
:101420008D919C9113970097B9F52D913C9111974F
:10143000CD010296820F931F20910003309101038A
:101440002817390739F6309751F510920303109297
:101450000203B0930103A0930003BCCFD383C283E4
:1014600040815181840F951FC817D90761F44E5FE1
:101470005F4F88819981480F591F518340838A812A
:101480009B81938382832115310509F0B0CFF093BE
:101490000303E09302039ECFFD01DC01C0CF138262
:1014A0001282D7CFDC0101C06D9341505040E0F76C
:1014B000089510E0C2E6D0E004C0FE010E942709B2
:1014C0002196C336D107C9F7F894FFCF0101000078
:1014D00000000004038000000000007303D302003A
:1014E00003C00331030F0323030D0A002056656C6C
:1014F0006B6F6D6D656E2074696C2042652046616E
:10150000737421204465747465207370696C6C6514
:10151000742065722066C3B8727374656D616E6EF7
:101520002074696C20313620706F656E67203A44F4
:101530004EC3A5206B616E2066C3B87273746520BC
:101540007370696C6C65722028626CC3A5206C6531
:10155000646E696E67292076656C676520666172C6
:1015600067653A20004EC3A520736B616C207370D1
:10157000696C6C657220322076656C6765206661E7
:10158000726765004EC3A520737461727465722022
:101590007370696C6C657421004E792072756E648D
:1015A000652100706F656E672074696C20737069C7
:1015B0006C6C657220312100706F656E67207469F4
:1015C0006C207370696C6C657220322100486F6CFE
:1015D00064206265676765206B6E6170706572205C
:1015E000696E6E6520666F7220C3A5207374617288
:0E15F00074652070C3A5206E7974742100000C
:107E0000112484B714BE81FFF0D085E080938100F7
:107E100082E08093C00088E18093C10086E0809377
:107E2000C20080E18093C4008EE0C9D0259A86E02C
:107E300020E33CEF91E0309385002093840096BBD3
:107E4000B09BFECF1D9AA8958150A9F7CC24DD24C4
:107E500088248394B5E0AB2EA1E19A2EF3E0BF2EE7
:107E6000A2D0813461F49FD0082FAFD0023811F036
:107E7000013811F484E001C083E08DD089C08234E0
:107E800011F484E103C0853419F485E0A6D080C0E4
:107E9000853579F488D0E82EFF2485D0082F10E0AE
:107EA000102F00270E291F29000F111F8ED06801E7
:107EB0006FC0863521F484E090D080E0DECF843638
:107EC00009F040C070D06FD0082F6DD080E0C81688
:107ED00080E7D80618F4F601B7BEE895C0E0D1E017
:107EE00062D089930C17E1F7F0E0CF16F0E7DF06D8
:107EF00018F0F601B7BEE89568D007B600FCFDCFD4
:107F0000A601A0E0B1E02C9130E011968C91119780
:107F100090E0982F8827822B932B1296FA010C0160
:107F200087BEE89511244E5F5F4FF1E0A038BF0790
:107F300051F7F601A7BEE89507B600FCFDCF97BE46
:107F4000E89526C08437B1F42ED02DD0F82E2BD052
:107F50003CD0F601EF2C8F010F5F1F4F84911BD097
:107F6000EA94F801C1F70894C11CD11CFA94CF0C13
:107F7000D11C0EC0853739F428D08EE10CD085E9AC
:107F80000AD08FE07ACF813511F488E018D01DD067
:107F900080E101D065CF982F8091C00085FFFCCF94
:107FA0009093C60008958091C00087FFFCCF809118
:107FB000C00084FD01C0A8958091C6000895E0E648
:107FC000F0E098E1908380830895EDDF803219F02E
:107FD00088E0F5DFFFCF84E1DECF1F93182FE3DFCA
:107FE0001150E9F7F2DF1F91089580E0E8DFEE27F6
:047FF000FF270994CA
:027FFE00040479
:00000001FF
